{
  "_format": "hh-sol-artifact-1",
  "contractName": "Stablestream",
  "sourceName": "contracts/Stablestream.sol",
  "abi": [
    {
      "inputs": [
        {
          "internalType": "address",
          "name": "token",
          "type": "address"
        }
      ],
      "name": "SafeERC20FailedOperation",
      "type": "error"
    },
    {
      "anonymous": false,
      "inputs": [
        {
          "indexed": true,
          "internalType": "uint256",
          "name": "streamId",
          "type": "uint256"
        },
        {
          "indexed": true,
          "internalType": "address",
          "name": "sender",
          "type": "address"
        },
        {
          "indexed": false,
          "internalType": "uint256",
          "name": "refundAmount",
          "type": "uint256"
        }
      ],
      "name": "StreamCancelled",
      "type": "event"
    },
    {
      "anonymous": false,
      "inputs": [
        {
          "indexed": true,
          "internalType": "uint256",
          "name": "streamId",
          "type": "uint256"
        },
        {
          "indexed": true,
          "internalType": "address",
          "name": "sender",
          "type": "address"
        },
        {
          "indexed": true,
          "internalType": "address",
          "name": "recipient",
          "type": "address"
        },
        {
          "indexed": false,
          "internalType": "address",
          "name": "token",
          "type": "address"
        },
        {
          "indexed": false,
          "internalType": "uint256",
          "name": "deposit",
          "type": "uint256"
        },
        {
          "indexed": false,
          "internalType": "uint256",
          "name": "ratePerSecond",
          "type": "uint256"
        },
        {
          "indexed": false,
          "internalType": "uint256",
          "name": "startTime",
          "type": "uint256"
        },
        {
          "indexed": false,
          "internalType": "uint256",
          "name": "stopTime",
          "type": "uint256"
        }
      ],
      "name": "StreamCreated",
      "type": "event"
    },
    {
      "anonymous": false,
      "inputs": [
        {
          "indexed": true,
          "internalType": "uint256",
          "name": "streamId",
          "type": "uint256"
        },
        {
          "indexed": true,
          "internalType": "address",
          "name": "recipient",
          "type": "address"
        },
        {
          "indexed": false,
          "internalType": "uint256",
          "name": "amount",
          "type": "uint256"
        }
      ],
      "name": "StreamWithdrawn",
      "type": "event"
    },
    {
      "inputs": [
        {
          "internalType": "uint256",
          "name": "_streamId",
          "type": "uint256"
        }
      ],
      "name": "cancelStream",
      "outputs": [],
      "stateMutability": "nonpayable",
      "type": "function"
    },
    {
      "inputs": [
        {
          "internalType": "address",
          "name": "_recipient",
          "type": "address"
        },
        {
          "internalType": "address",
          "name": "_token",
          "type": "address"
        },
        {
          "internalType": "uint256",
          "name": "_ratePerSecond",
          "type": "uint256"
        },
        {
          "internalType": "uint256",
          "name": "_startTime",
          "type": "uint256"
        },
        {
          "internalType": "uint256",
          "name": "_duration",
          "type": "uint256"
        }
      ],
      "name": "createStream",
      "outputs": [
        {
          "internalType": "uint256",
          "name": "",
          "type": "uint256"
        }
      ],
      "stateMutability": "nonpayable",
      "type": "function"
    },
    {
      "inputs": [
        {
          "internalType": "uint256",
          "name": "_streamId",
          "type": "uint256"
        }
      ],
      "name": "getAvailableBalance",
      "outputs": [
        {
          "internalType": "uint256",
          "name": "",
          "type": "uint256"
        }
      ],
      "stateMutability": "view",
      "type": "function"
    },
    {
      "inputs": [
        {
          "internalType": "address",
          "name": "_sender",
          "type": "address"
        }
      ],
      "name": "getSenderStreams",
      "outputs": [
        {
          "internalType": "uint256[]",
          "name": "",
          "type": "uint256[]"
        }
      ],
      "stateMutability": "view",
      "type": "function"
    },
    {
      "inputs": [],
      "name": "nextStreamId",
      "outputs": [
        {
          "internalType": "uint256",
          "name": "",
          "type": "uint256"
        }
      ],
      "stateMutability": "view",
      "type": "function"
    },
    {
      "inputs": [
        {
          "internalType": "address",
          "name": "",
          "type": "address"
        },
        {
          "internalType": "uint256",
          "name": "",
          "type": "uint256"
        }
      ],
      "name": "senderStreamIds",
      "outputs": [
        {
          "internalType": "uint256",
          "name": "",
          "type": "uint256"
        }
      ],
      "stateMutability": "view",
      "type": "function"
    },
    {
      "inputs": [
        {
          "internalType": "uint256",
          "name": "",
          "type": "uint256"
        }
      ],
      "name": "streams",
      "outputs": [
        {
          "internalType": "address",
          "name": "sender",
          "type": "address"
        },
        {
          "internalType": "address",
          "name": "recipient",
          "type": "address"
        },
        {
          "internalType": "address",
          "name": "token",
          "type": "address"
        },
        {
          "internalType": "uint256",
          "name": "deposit",
          "type": "uint256"
        },
        {
          "internalType": "uint256",
          "name": "ratePerSecond",
          "type": "uint256"
        },
        {
          "internalType": "uint256",
          "name": "startTime",
          "type": "uint256"
        },
        {
          "internalType": "uint256",
          "name": "stopTime",
          "type": "uint256"
        },
        {
          "internalType": "uint256",
          "name": "withdrawnAmount",
          "type": "uint256"
        },
        {
          "internalType": "bool",
          "name": "cancelled",
          "type": "bool"
        }
      ],
      "stateMutability": "view",
      "type": "function"
    },
    {
      "inputs": [
        {
          "internalType": "uint256",
          "name": "_streamId",
          "type": "uint256"
        },
        {
          "internalType": "uint256",
          "name": "_amount",
          "type": "uint256"
        }
      ],
      "name": "withdrawFromStream",
      "outputs": [],
      "stateMutability": "nonpayable",
      "type": "function"
    }
  ],
  "bytecode": "0x608060405234801561001057600080fd5b50611905806100206000396000f3fe608060405234801561001057600080fd5b50600436106100885760003560e01c80637a9b2c6c1161005b5780637a9b2c6c1461012f57806383ef7fe41461014b578063aabef0db1461017b578063c019f4fc146101ab57610088565b806306eb2dd31461008d5780631e99d569146100bd57806364d60d91146100db5780636db9241b14610113575b600080fd5b6100a760048036038101906100a29190610f75565b6101db565b6040516100b49190610fff565b60405180910390f35b6100c56106d3565b6040516100d29190610fff565b60405180910390f35b6100f560048036038101906100f0919061101a565b6106d9565b60405161010a99989796959493929190611071565b60405180910390f35b61012d6004803603810190610128919061101a565b610794565b005b610149600480360381019061014491906110fe565b61098a565b005b6101656004803603810190610160919061113e565b610b94565b6040516101729190610fff565b60405180910390f35b6101956004803603810190610190919061101a565b610bc5565b6040516101a29190610fff565b60405180910390f35b6101c560048036038101906101c0919061117e565b610cb8565b6040516101d29190611269565b60405180910390f35b60008073ffffffffffffffffffffffffffffffffffffffff168673ffffffffffffffffffffffffffffffffffffffff160361024b576040517f08c379a0000000000000000000000000000000000000000000000000000000008152600401610242906112e8565b60405180910390fd5b3373ffffffffffffffffffffffffffffffffffffffff168673ffffffffffffffffffffffffffffffffffffffff16036102b9576040517f08c379a00000000000000000000000000000000000000000000000000000000081526004016102b090611354565b60405180910390fd5b600084116102fc576040517f08c379a00000000000000000000000000000000000000000000000000000000081526004016102f3906113c0565b60405180910390fd5b6000821161033f576040517f08c379a00000000000000000000000000000000000000000000000000000000081526004016103369061142c565b60405180910390fd5b42831015610382576040517f08c379a000000000000000000000000000000000000000000000000000000000815260040161037990611498565b60405180910390fd5b6000828561039091906114e7565b9050600081116103d5576040517f08c379a00000000000000000000000000000000000000000000000000000000081526004016103cc90611575565b60405180910390fd5b6104023330838973ffffffffffffffffffffffffffffffffffffffff16610d4f909392919063ffffffff16565b600080600081548092919061041690611595565b9190505590506000848661042a91906115dd565b90506040518061012001604052803373ffffffffffffffffffffffffffffffffffffffff1681526020018a73ffffffffffffffffffffffffffffffffffffffff1681526020018973ffffffffffffffffffffffffffffffffffffffff16815260200184815260200188815260200187815260200182815260200160008152602001600015158152506001600084815260200190815260200160002060008201518160000160006101000a81548173ffffffffffffffffffffffffffffffffffffffff021916908373ffffffffffffffffffffffffffffffffffffffff16021790555060208201518160010160006101000a81548173ffffffffffffffffffffffffffffffffffffffff021916908373ffffffffffffffffffffffffffffffffffffffff16021790555060408201518160020160006101000a81548173ffffffffffffffffffffffffffffffffffffffff021916908373ffffffffffffffffffffffffffffffffffffffff160217905550606082015181600301556080820151816004015560a0820151816005015560c0820151816006015560e082015181600701556101008201518160080160006101000a81548160ff021916908315150217905550905050600260003373ffffffffffffffffffffffffffffffffffffffff1673ffffffffffffffffffffffffffffffffffffffff1681526020019081526020016000208290806001815401808255809150506001900390600052602060002001600090919091909150558873ffffffffffffffffffffffffffffffffffffffff163373ffffffffffffffffffffffffffffffffffffffff16837f7310c8f9e75a815c1d827635f05beebdad06978d5e41059afaa48b8e0b2fccf78b878c8c886040516106bc959493929190611611565b60405180910390a481935050505095945050505050565b60005481565b60016020528060005260406000206000915090508060000160009054906101000a900473ffffffffffffffffffffffffffffffffffffffff16908060010160009054906101000a900473ffffffffffffffffffffffffffffffffffffffff16908060020160009054906101000a900473ffffffffffffffffffffffffffffffffffffffff16908060030154908060040154908060050154908060060154908060070154908060080160009054906101000a900460ff16905089565b60006001600083815260200190815260200160002090503373ffffffffffffffffffffffffffffffffffffffff168160000160009054906101000a900473ffffffffffffffffffffffffffffffffffffffff1673ffffffffffffffffffffffffffffffffffffffff161461083d576040517f08c379a0000000000000000000000000000000000000000000000000000000008152600401610834906116b0565b60405180910390fd5b8060080160009054906101000a900460ff161561088f576040517f08c379a00000000000000000000000000000000000000000000000000000000081526004016108869061171c565b60405180910390fd5b600061089a83610bc5565b905060018260080160006101000a81548160ff0219169083151502179055506000811115610936576109358260000160009054906101000a900473ffffffffffffffffffffffffffffffffffffffff16828460020160009054906101000a900473ffffffffffffffffffffffffffffffffffffffff1673ffffffffffffffffffffffffffffffffffffffff16610da49092919063ffffffff16565b5b3373ffffffffffffffffffffffffffffffffffffffff16837ffeed183d9f143664e4ca27ca57080be96d765ab4bff9d02e3bb0a9b04e149c258360405161097d9190610fff565b60405180910390a3505050565b60006001600084815260200190815260200160002090503373ffffffffffffffffffffffffffffffffffffffff168160010160009054906101000a900473ffffffffffffffffffffffffffffffffffffffff1673ffffffffffffffffffffffffffffffffffffffff1614610a33576040517f08c379a0000000000000000000000000000000000000000000000000000000008152600401610a2a90611788565b60405180910390fd5b8060080160009054906101000a900460ff1615610a85576040517f08c379a0000000000000000000000000000000000000000000000000000000008152600401610a7c906117f4565b60405180910390fd5b6000610a9084610bc5565b905080831115610ad5576040517f08c379a0000000000000000000000000000000000000000000000000000000008152600401610acc90611860565b60405180910390fd5b82826007016000828254610ae991906115dd565b92505081905550610b3f33848460020160009054906101000a900473ffffffffffffffffffffffffffffffffffffffff1673ffffffffffffffffffffffffffffffffffffffff16610da49092919063ffffffff16565b3373ffffffffffffffffffffffffffffffffffffffff16847fb8794a93ad70d58bd94788f8523cd8ebcff47f5541f8816ade60c636f1b5782785604051610b869190610fff565b60405180910390a350505050565b60026020528160005260406000208181548110610bb057600080fd5b90600052602060002001600091509150505481565b6000806001600084815260200190815260200160002090508060080160009054906101000a900460ff1615610bfe576000915050610cb3565b60004290508160050154811015610c1a57600092505050610cb3565b600082600601549050808210610c485782600701548360030154610c3e9190611880565b9350505050610cb3565b6000836005015483610c5a9190611880565b90506000846004015482610c6e91906114e7565b905084600301548110610c9b5784600701548560030154610c8f9190611880565b95505050505050610cb3565b846007015481610cab9190611880565b955050505050505b919050565b6060600260008373ffffffffffffffffffffffffffffffffffffffff1673ffffffffffffffffffffffffffffffffffffffff168152602001908152602001600020805480602002602001604051908101604052809291908181526020018280548015610d4357602002820191906000526020600020905b815481526020019060010190808311610d2f575b50505050509050919050565b610d5d848484846001610df7565b610d9e57836040517f5274afe7000000000000000000000000000000000000000000000000000000008152600401610d9591906118b4565b60405180910390fd5b50505050565b610db18383836001610e72565b610df257826040517f5274afe7000000000000000000000000000000000000000000000000000000008152600401610de991906118b4565b60405180910390fd5b505050565b6000806323b872dd60e01b90506040518160005260001960601c871660045260001960601c8616602452846044526020600060646000808c5af192506001600051148316610e5e578383151615610e51573d6000823e3d81fd5b6000883b113d1516831692505b806040526000606052505095945050505050565b60008063a9059cbb60e01b90506040518160005260001960601c8616600452846024526020600060446000808b5af192506001600051148316610ece578383151615610ec1573d6000823e3d81fd5b6000873b113d1516831692505b806040525050949350505050565b600080fd5b600073ffffffffffffffffffffffffffffffffffffffff82169050919050565b6000610f0c82610ee1565b9050919050565b610f1c81610f01565b8114610f2757600080fd5b50565b600081359050610f3981610f13565b92915050565b6000819050919050565b610f5281610f3f565b8114610f5d57600080fd5b50565b600081359050610f6f81610f49565b92915050565b600080600080600060a08688031215610f9157610f90610edc565b5b6000610f9f88828901610f2a565b9550506020610fb088828901610f2a565b9450506040610fc188828901610f60565b9350506060610fd288828901610f60565b9250506080610fe388828901610f60565b9150509295509295909350565b610ff981610f3f565b82525050565b60006020820190506110146000830184610ff0565b92915050565b6000602082840312156110305761102f610edc565b5b600061103e84828501610f60565b91505092915050565b61105081610f01565b82525050565b60008115159050919050565b61106b81611056565b82525050565b600061012082019050611087600083018c611047565b611094602083018b611047565b6110a1604083018a611047565b6110ae6060830189610ff0565b6110bb6080830188610ff0565b6110c860a0830187610ff0565b6110d560c0830186610ff0565b6110e260e0830185610ff0565b6110f0610100830184611062565b9a9950505050505050505050565b6000806040838503121561111557611114610edc565b5b600061112385828601610f60565b925050602061113485828601610f60565b9150509250929050565b6000806040838503121561115557611154610edc565b5b600061116385828601610f2a565b925050602061117485828601610f60565b9150509250929050565b60006020828403121561119457611193610edc565b5b60006111a284828501610f2a565b91505092915050565b600081519050919050565b600082825260208201905092915050565b6000819050602082019050919050565b6111e081610f3f565b82525050565b60006111f283836111d7565b60208301905092915050565b6000602082019050919050565b6000611216826111ab565b61122081856111b6565b935061122b836111c7565b8060005b8381101561125c57815161124388826111e6565b975061124e836111fe565b92505060018101905061122f565b5085935050505092915050565b60006020820190508181036000830152611283818461120b565b905092915050565b600082825260208201905092915050565b7f726563697069656e74206973207a65726f206164647265737300000000000000600082015250565b60006112d260198361128b565b91506112dd8261129c565b602082019050919050565b60006020820190508181036000830152611301816112c5565b9050919050565b7f726563697069656e742069732073656e64657200000000000000000000000000600082015250565b600061133e60138361128b565b915061134982611308565b602082019050919050565b6000602082019050818103600083015261136d81611331565b9050919050565b7f72617465206973207a65726f0000000000000000000000000000000000000000600082015250565b60006113aa600c8361128b565b91506113b582611374565b602082019050919050565b600060208201905081810360008301526113d98161139d565b9050919050565b7f6475726174696f6e206973207a65726f00000000000000000000000000000000600082015250565b600061141660108361128b565b9150611421826113e0565b602082019050919050565b6000602082019050818103600083015261144581611409565b9050919050565b7f73746172742074696d6520696e20706173740000000000000000000000000000600082015250565b600061148260128361128b565b915061148d8261144c565b602082019050919050565b600060208201905081810360008301526114b181611475565b9050919050565b7f4e487b7100000000000000000000000000000000000000000000000000000000600052601160045260246000fd5b60006114f282610f3f565b91506114fd83610f3f565b925082820261150b81610f3f565b91508282048414831517611522576115216114b8565b5b5092915050565b7f6465706f736974206973207a65726f0000000000000000000000000000000000600082015250565b600061155f600f8361128b565b915061156a82611529565b602082019050919050565b6000602082019050818103600083015261158e81611552565b9050919050565b60006115a082610f3f565b91507fffffffffffffffffffffffffffffffffffffffffffffffffffffffffffffffff82036115d2576115d16114b8565b5b600182019050919050565b60006115e882610f3f565b91506115f383610f3f565b925082820190508082111561160b5761160a6114b8565b5b92915050565b600060a0820190506116266000830188611047565b6116336020830187610ff0565b6116406040830186610ff0565b61164d6060830185610ff0565b61165a6080830184610ff0565b9695505050505050565b7f6e6f742073656e64657200000000000000000000000000000000000000000000600082015250565b600061169a600a8361128b565b91506116a582611664565b602082019050919050565b600060208201905081810360008301526116c98161168d565b9050919050565b7f616c72656164792063616e63656c6c6564000000000000000000000000000000600082015250565b600061170660118361128b565b9150611711826116d0565b602082019050919050565b60006020820190508181036000830152611735816116f9565b9050919050565b7f6e6f7420726563697069656e7400000000000000000000000000000000000000600082015250565b6000611772600d8361128b565b915061177d8261173c565b602082019050919050565b600060208201905081810360008301526117a181611765565b9050919050565b7f73747265616d2063616e63656c6c656400000000000000000000000000000000600082015250565b60006117de60108361128b565b91506117e9826117a8565b602082019050919050565b6000602082019050818103600083015261180d816117d1565b9050919050565b7f6578636565647320617661696c61626c65000000000000000000000000000000600082015250565b600061184a60118361128b565b915061185582611814565b602082019050919050565b600060208201905081810360008301526118798161183d565b9050919050565b600061188b82610f3f565b915061189683610f3f565b92508282039050818111156118ae576118ad6114b8565b5b92915050565b60006020820190506118c96000830184611047565b9291505056fea26469706673582212202f4a5b9700ee2bebc1d51dee3de1960ce339b8161c8891c3a3b64014993f44ae64736f6c63430008180033",
  "linkReferences": {},
  "deployedLinkReferences": {}
}